:040000001FC0FECF50
:10000400FDCFFCCFFBCFFACFF9CFF8CFF7CF51C05C
:10001400F5CFF4CFF3CFF2CF4DC0F0CFEFCF0F0E2B
:100024000D0B07007E0CB69ECCDAFA0EFEDE050040
:10003400E00022000A00E50028000000F894EE2702
:10004400ECBBE5BFF8E1F1BDE1BD8DE0A2E0BB276B
:10005400ED938A95E9F780E092E0A0E6ED930197AD
:10006400E9F7E2E3F0E0C8953196802DC895319622
:10007400902D0097B9F0C8953196A02DC89531966A
:10008400B02DC8953196102CC89531966E2F7F2FC0
:10009400F02DE12DC89531960D920197D9F7E62FF1
:1000A400F72FE1CFEFE5EDBFE2E0EEBFC0EED0E029
:1000B40090C018950A921A92FA926A937A938A9344
:1000C4009A93AA93BA93EA93FA93EFB7EA9344B054
:1000D40055B0A42DB52D1FD0E991EFBFF991E99149
:1000E400B991A9919991899179916991F99019900E
:1000F40009901895AA93E881E7B98BE18A95F1F7FD
:10010400E5B7EF7CE064E5BF8895EF7BE5BFE42DC0
:10011400F52D21960895BA93AA93249786D01A9719
:1001240028F4EC81E883E0E083D02DC085D018F476
:100134007CD01A9708F406C084D0E88382D086D095
:1001440077D021C08CD010F477D008F40AC079D0CD
:10015400E88377D07BD0E98374D078D0EA83E0E079
:1001640012C063D0A031E7E2BE0710F478D008F4DF
:100174000BC067D0E88365D069D0E98362D066D0CC
:10018400EA835FD063D0EB83AC2FBD2F02D02696D9
:100194000895BA93AA930A9301E00530B8F464D0A1
:1001A400E052FF4FE081E5BB5FD03197A981BA816E
:1001B400AE0FBF1FEC91F0E0EB51FF4FE081E8BBC5
:1001C40080E496E00197F1F70F5FE7CF088123966B
:1001D4000895E0E0EBBBEABBE8BBEFEFE7BBE0E090
:1001E400E5BBEFE0E4BBE0E0E2BBE1BBE3BFE2BFC1
:1001F400EFBDEEBDEDBDECBDEBBDEABDE9BDE8BDB7
:10020400E2BDE5BDE4BDE3BDEBBFE5BFE1E0E9BFB1
:10021400E0E0EAB9E0E8E8B9EBE8E6B9E0E0EDB936
:100224007894A0E067DFFDCFFFCFAC81BD81089556
:10023400E983E0E0EA830895F8DFA436E0E0BE074E
:100244000895F3DFEAE0F0E027D00895EEDFAE1B77
:10025400BF0BEAE0F0E00BD0EC83FD83F2CFE5DFE7
:10026400A83EE3E0BE070895E02FF0E008950024DF
:10027400112490E1AA0FBB1F001C111C0E1A1F0AA7
:1002840018F40E0E1F1E01C0A1609A9599F7EA2F6B
:10029400FB2FA02DB12D0895EADFEA2FFB2F08953F
:00000001FF
