:0200000046C0F8
:1000020080C0FDCFFCCFFBCFFACFF9CFF8CFF7CF2F
:100012007CC0F5CFF4CFF3CFF2CFF1CFF0CFEFCF5B
:100022001027E80364000A0001000010000110001C
:100032000100EEEDEBE7DEDDDBD7BEBDBBB77E7DBB
:100042007B770000FFFF00FF3D2056657269736FEA
:100052006E20302E31203D0043616C63756C61630C
:10006200746F720001002D4E414E00494E46000051
:1000720080C01000E00034000600040044000100CB
:10008200FC0066000200000172000000F894EE27F6
:10009200ECBBE5BFF8E1F1BDE1BD8DE0A2E0BB271D
:1000A200ED938A95E9F780E092E0A0E6ED9301975F
:1000B200E9F7E4E7F0E0C8953196802DC8953196CE
:1000C200902D0097B9F0C8953196A02DC89531961C
:1000D200B02DC8953196102CC89531966E2F7F2F72
:1000E200F02DE12DC89531960D920197D9F7E62FA3
:1000F200F72FE1CFEFE5EDBFE2E0EEBFC0EED0E0DB
:100102004BC0C7D3D4D3DAD339C0C3D32997E7EFCF
:10011200ED83EBEFEE83EDEFEF83EEEFE8871ED793
:1001220030E000E0043010F5E02FE2D3AC2FBD2F19
:100132001996AE0FBF1FEC91EBBB10E01031A0F48B
:10014200E9B3AE2FE12FD4D3E052FF4FE081EA179B
:1001520049F4191521F0A12F61D02E2F01C00CC036
:10016200912E08C01F5FEACF0F5FDCCF303011F451
:10017200EFEF9E2EE0E0E2BFF6D62D96E991EFBFBB
:10018200F991E991B991A99199918991799169919D
:10019200F990199009901895E0EFEBBBEFE0EABBFC
:1001A200E0E0E8BBEFE0E7BBE0E0E5BBE4BBE1E4B5
:1001B200E2BBE1E7E1BBE0E0E3BFE2BFEFBDEEBDE2
:1001C200EDBDECBDEBBDEABDE9BDE8BDE2BDE5BDFF
:1001D200E4BDE3BDE0E4EBBFE3E0E5BFE0E4EABF9A
:1001E200E1E0E9BFE0E0EAB9E0E8E8B9E0E0E6B979
:1001F200EDB9A0E1D5D278947DD37FD3AAE4B0E063
:10020200BCD2E2E07CD3AAE5B0E0B7D2A8EEB3E07C
:10021200CBD487D2E5E0E3BFFFCFFFCFAA93A49769
:100222009ED600E0EFA1FF276627772733D56AD352
:100232006ED311F410E001C0162D6CD311F420E03E
:1002420001C0272D552009F056C067D310F45FD3A3
:1002520009F007C065D36DD371D378D380D38ED321
:1002620049C05BD310F453D309F40EC000E0011768
:1002720018F48AD30F5FFBCF8ED352D349D566D3FE
:1002820063946DD37BD336C048D311F440D309F0C5
:1002920008C086D38ED393D32DD370D3AEE24BD284
:1002A20029C0AFA1AB3021F48DD3ABE28DD322C0F4
:1002B200AFA1AC3021F486D3ADE28CD31BC0AFA189
:1002C200AD3021F47FD3AAE28BD314C0AFA1AE30FC
:1002D20021F478D3AFE28AD30DC0AFA1AF3051F48D
:1002E20071D38AD38ED397D364D304D306D39CD34A
:1002F200EFE04E2EF1C0E1E0E51509F07EC00DD32E
:1003020010F408D309F006C093D313D317D399D3AB
:10031200A1D36BC002D310F4FDD209F40DC000E0EA
:10032200021718F431D30F5FFBCF35D381D3F0D44A
:1003320088D373948FD359C0F0D211F4EBD209F061
:100342000AC088D392D3E1E07E2ED4D2D6D26CD327
:10035200AEE2F1D151C0AFA1AB3049F48AD38DD313
:1003620063D391D3ABE29CD3EBE04E2E45C0AFA159
:10037200AC3049F47ED381D357D385D3ADE290D349
:10038200ECE04E2E39C0AFA1AD3049F472D375D333
:100392004BD379D3AAE284D3EDE04E2E2DC0AFA188
:1003A200AE3049F466D369D33FD36DD3AFE278D38D
:1003B200EEE04E2E21C0AFA1AF30F1F4103009F0C3
:1003C2001150203009F02150ACD1C9D2D7D2A42D7E
:1003D200CDD0AE2FB0D13ED348D326D3F3D20CD357
:1003E200A42D7DD018D3A3D58A92AC2FBD2F1C96F5
:1003F200D8D080D282D218D36FC0E2E0E51509F0DE
:100402006BC08BD258F453D210E020E057D288D27E
:1004120090D294D29BD2A3D2B1D25EC07ED279F4D2
:1004220043D344245524CBD241D3882410E041D372
:10043200C0D2C5D25FD2A2D2AEE27DD14DC0AFA1B1
:10044200AB3071F431D3EBE048D34CD370D56A9220
:100452000CD3B5D24FD292D2B5D2ABE2B5D23CC018
:10046200AFA1AC3061F420D3ECE037D33BD3A1D2BF
:10047200A6D240D283D2A6D2ADE2ACD22DC0AFA1D9
:10048200AD3061F411D3EDE028D32CD392D297D2C0
:1004920031D274D297D2AAE2A3D21EC0AFA1AE309B
:1004A200D9F402D3EEE019D3182D882420E0E0E03D
:1004B200E093F400E093F500E093F600E093F70098
:1004C200E093F800E093F900E093FA00E093FB0078
:1004D20028D178D2AFE28AD247D5A8960895AA93B6
:1004E200A881AB3081F413D209F0FFD213D239F0D4
:1004F2000ED211F0671418F4E72DE1508E2EF9D2C6
:1005020007D400D375C1A881AC3089F400D209F0B8
:10051200ECD200D239F0FBD111F0671418F4E72DB8
:10052200E1508E2E85D23CD2ECD3ECD261C1A881AF
:10053200AD3061F4ECD109F0D8D2ECD119F0E72D4D
:10054200E1508E0ED6D234D4DDD252C1A881AE3063
:1005520031F4E6E08E2ECDD25DD4D4D249C1A88149
:10056200AF3019F44ED2862C43C142C1AA93A8815E
:10057200AB3011F4EBE23CC1A881AC3011F4EDE2F6
:1005820037C1A881AD3011F4EAE232C1A881AE30A0
:1005920011F4EFE22DC1A881AF3011F4EDE328C1CF
:1005A20027C1B9D22497E0E0E883E983EA83EFE345
:1005B200EB83D6D4EB85FC85EF3FAFEFFA0729F446
:1005C200ADD2A8E6B0E016D17BC0EF3FAFE7FA07A5
:1005D20029F4A4D2A9E6B0E00DD172C0AC85AA2359
:1005E20032F4A1D2EBD2A4D2A8D2EDE2EC93A88548
:1005F200A73010F0E6E0E8870885E02F0150E030F0
:1006020021F0A2D2A6D2ABD2F8CFAED281D390D271
:1006120000E0E0E0F0E060E87FE3A1D2A5D240D4C0
:1006220068F092D286D1C4D39AD20F5F073228F0F3
:1006320075D2ADE6B0E0DED043C0F0CF003021F499
:100642007CD2E0E3EC931DC0E02F0150E030C9F012
:100652007BD27FD2A0E0B0E080E09FE359D353D4B5
:1006620008D17DD281D2D6D3DCD21E2F66D285D2DA
:100672006BD244D40FD39CD385D263D442D358D205
:10068200E3CFE885E030C1F058D2EEE2EC93E885A2
:10069200E150E887EF5F81F075D24BD189D348D220
:1006A20042D2BFD21E2F49D268D26CD227D4F2D204
:1006B20048D427D33DD2EBCFAE81BF81E0E0EC93AB
:1006C20054D42D960895AA93E8B3E07FAE2FE88123
:1006D200E295EF70EA2BE8BB85E08A95F1F7909AF4
:1006E2008DE08A95F1F790988DE08A95F1F780C0B8
:1006F200AA93A881E8DFE881E295E883A881E3DF95
:1007020085E88A95F1F774C0AA93E881F1D0E050A8
:10071200FF4FE081A981AE0FEBDFA980B88022965E
:100722000895A2E034D2ACE0E3DFA1E030D2E0E011
:10073200BE2EAE2E0895AA93A881AA3011F0AC1451
:1007420040F0D8D0B394AB2DDFDFA881AA3009F4F2
:100752004FC0A394959AA881CBDF959849C0DBD16D
:100762000A93A981BA81ED91A983BA830E2FE03051
:1007720019F0A02FE0DFF5CF10C0CDD10A93E981A7
:10078200FA813196E983FA833197C895E02D0E2FCD
:10079200E03019F0A02FCFDFF2CF08812396089521
:1007A200AA93E7B3EF60E7BB889A8D9A8C9A9098E8
:1007B20095989498C880E881E058E0930201E88116
:1007C200E054E0930301A4E1B0E0EED1E4D1E3D13F
:1007D200E2D1A0E278DF88EC90E00197F1F7A8E29D
:1007E20087DFA4E085DFA5E883DFA6E081DF99DF6C
:1007F2002196089590D1E991F991A991B9918A2F01
:100802009B2FC89531960D920020D9F7E82FF92F2A
:10081200089592D37B816A81F981E88177FB770F12
:1008220067FD7160972F9E5781F078F0983190F4B0
:10083200AA27BB27882708948795B795A7959A95E5
:10084200D1F7EA23FB23682305C0E8947727EE2734
:10085200FF2766276F77769508F4606877F9A99184
:10086200B99189919991EA17FB076807790797FB74
:10087200089562D352D3CDDF55D311F493D107C07B
:10088200EEF790D1A0E0B0E080E89FE33AD2249660
:1008920008950A921A92FA926A937A938A939A9391
:1008A200AA93BA93EA93FA93EFB7EA93089544248A
:1008B2005524EFEF6E2E7E2E88240895E0E0E0931B
:1008C200F000E093F100E093F200E093F300E09394
:1008D200F400E093F500E093F600E093F700E09374
:1008E200F800E093F900E093FA00E093FB0019CFDF
:1008F200F0E00895E0E0EA930895A1E005CFEA93DD
:10090200A0E002CFEB83FC836D837E830895EFEF3B
:10091200E6150895EFEFE7150895AFA1AA300895FF
:10092200A091F000B091F1008091F2009091F3005B
:100932000895E0E0F0E060E271E4089539D2E3D294
:10094200EFA1D6DFDBD2A6D1E3D10895E093F00088
:10095200F093F1006093F2007093F3000895E09138
:10096200F000F091F1006091F2007091F300DFD29B
:100972001A93AC2FBD2F1C9614DEBCCFA0E0C4DEB0
:10098200AC2FBD2F1796EBCEAB81BC818D819E81A2
:10099200D0DF40D2B7CFEB81FC816D817E8108959B
:1009A200E091F000F091F1006091F2007091F3009B
:1009B2000895BDD21A93AC2FBD2F1C96F2CDE1E063
:1009C2006E2E0895EFE09BCFB6DEEBE04E2EE1E017
:1009D2005E2E0895B0DEECE04E2EE1E05E2E08952C
:1009E200AADEEDE04E2EE1E05E2E0895A4DEEEE0FA
:1009F2004E2EE1E05E2E0895ADE39DDEE2E05E2E36
:100A02000895CEDFE093F800F093F9006093FA00C6
:100A12007093FB000895E091F800F091F900609165
:100A2200FA007091FB000895AC2FBD2F179697CE58
:100A3200A091F400B091F5008091F6009091F7003A
:100A42000895E093F400F093F5006093F60070933C
:100A5200F7000895E091F400F091F5006091F6003E
:100A62007091F70064D22A930895AC2FBD2F1C9683
:100A720098CDA42D34DD55DE3DCFA0E045DECBDFA1
:100A820056D28A92F2CFE0E0E093F400E093F500D0
:100A9200E093F600E093F7007724BDDF57DF92CFB3
:100AA2004ADEE1E05E2E0895B6DF50CFEFEF7E2EF4
:100AB200089520E0E0E0E093F400E093F500E09395
:100AC200F600E093F700E093F800E093F900E0937A
:100AD200FA00E093FB0025DE63CF4E2EE1E05E2EAE
:100AE200682CE4CF182D8824E4CFE62DE1508E2E19
:100AF2000895E091F400F091F5006091F600709194
:100B0200F7000ECFE093F800F093F9006093FA003B
:100B12007093FB000895BA93AA930895EE81FF8122
:100B2200FA93EA930895E985FA856B857C850895A1
:100B3200E987FA876B877C870895AE81BF8111961A
:100B4200AE83BF8311970895AA81BB818C819D8159
:100B52000895EDECFCEC6CEC7DE32AD10895EA8378
:100B6200FB836C837D830895EA81FB816C817D81A7
:100B7200A985BA858B859C850895E12FE05DEC936C
:100B8200E12FB6CEA985BA858B859C850895B0DD07
:100B9200A3E0B0E009C0A0E396DD88EC90E0019705
:100BA200F1F70895B5D10895109639F080ED97E0E8
:100BB2000197F1F7A8951197C9F70895309760400A
:100BC200704009F070580895552342F4503811F4DA
:100BD200E0FF04C03196691F791F6BF050E8572778
:100BE20011F45F93D3C05F3F31F0660F000C57954D
:100BF2006795752F08955F9300200AF0D3C0CCC08B
:100C020050E8192E1522880F991F9527550F8795A1
:100C120050E8072E0522660F771F7527550F679537
:100C22000895689401C0E8945F93F2DF703818F079
:100C32007F3F08F4ABC056E1571BAAF451955830D8
:100C42000EF4593030F0EFEFFFEF6FEF7FE777F9F7
:100C52001AC077275523B9F0EE0FFF1F661F771FC3
:100C62005A95D1F710C07727583028F0EF2FF62F7A
:100C7200672F5850F9CF552331F076956795F79540
:100C8200E7955A95D1F700200AF42AD15F91089589
:100C9200689401C0E894309760407040B1F000243D
:100CA20026F0772312F400941BD1172E7EE1112037
:100CB20032F07A95EE0FFF1F661F111CF9CFEF2F4E
:100CC200F62F612D5F938ADF5F9108955E2FEA2FE1
:100CD200A52F5F2FFB2FB52F562F682F852F572F4C
:100CE200792F952F502D012C152E0895EA0FFB1FF9
:100CF200681F0895E095F0956095EF5FFF4F6F4F85
:100D020008955F937DDF903871F150E8152604C095
:100D12005F9376DF903839F1703821F1572F591BE4
:100D22002BF112F4D3DFFACF583118F0AA27BB27E0
:100D32008827583028F0AB2FB82F88275850F9CF82
:100D4200552329F08695B795A7955A95D9F7502D31
:100D5200512572F0CBDF38F46795F795E7957395D7
:100D620013F420C0B3DF3ADF5F910895D8F7FBCFC9
:100D7200EA1BFB0B680B51F010F40094BBDF6623F7
:100D820092F3EE0FFF1F661F7A95CBF7EE27FF2730
:100D9200662777275F910895EFEFFFEF6FE77FEF09
:100DA2005F910895EFEFFFEF6FE77FE75F9108959F
:100DB2005F9326DF703851F3903841F30124089491
:100DC200791F23F41CF300203AF3ECCF3F934F93A7
:100DD200112433274427552798E1330F441F551F09
:100DE200EE1FFF1F661F30F43A0F4B1F581FE11D05
:100DF200F11D611D9A9589F74F913F9166232AF063
:100E0200550FEE1FFF1F661F02C07395E3F2DCDE73
:100E12005F9108955F93F4DE703821F411200AF493
:100E2200BBCFC0CF903809F4B1CF01240894970BFF
:100E32001BF4D4F30020F3CF792F1F932F933F930A
:100E42004F9311241127222733274427552790E255
:100E5200AE17BF078607410730F0AE1BBF0B860BEC
:100E6200410B089401C08894551F221F331F111C87
:100E7200AA1FBB1F881F441F9A9551F7E22FF32F19
:100E8200612D4F913F912F911F91662332F0550FA3
:100E9200EE1FFF1F661F7A953BF296DE5F91089563
:100EA20099239AF0772342F0971748F029F4AE1766
:100EB200BF07860720F031F098948894089598949B
:100EC200089408951894889408957723C2F7971781
:100ED20098F3A9F7EA17FB07680788F399F3ECCFB1
:100EE200F09560957095E195FF4F6F4F7F4F089594
:100EF200FE2FFF0FFF0B6F2F7F2F08956F2F660FAF
:100F0200660B762F0895AE2FBF2F862F972F089549
:100F1200E881F9816A817B810895A881B9818A81FA
:100F22009B810895E883F9836A837B8308957A938A
:100F32006A93FA93EA9308959A938A93BA93AA9337
:100F42000895182E862F612D192E972F712D1B2E85
:100F5200BF2FF12D1A2EAE2FE12D08953A932A9329
:100F62001A930A9308953B812A8119810881089571
:00000001FF
