:0C00000010C0FECFFDCFFCCFFBCFFACF2D
:10000C00F9CFF8CFF7CFF6CFF5CFF4CFF3CFF2CFC0
:10001C00F1CFF0CFEFCFF894EE27ECBBE5BFF8E1D2
:10002C00F1BDE1BD8DE0A2E0BB27ED938A95E9F728
:10003C0080E092E0A0E6ED930197E9F7EFE5EDBFE4
:10004C00E2E0EEBFC0EED0E000C0E0E0EBBBEABB0C
:10005C00E8BBE7BBE5BBE4BBE2BBE0E3E1BBE0E054
:10006C00E3BFE2BFE1E8EFBDE1E0EEBDE0E0EDBDF6
:10007C00ECBDEBBDEABDE9BDE0E6E8BDE0E0E2BD0C
:10008C00E5BDE4BDE3BDEBBFE5BFE9BFEAB9E0E820
:10009C00E8B9E0E0E6B9EDB9EAB5EF5F0BD0EAB547
:1000AC00EF3FD1F7EAB5E15005D0EAB5E030D1F732
:1000BC00F3CFFFCFEABDAAE0B0E000C0109639F054
:1000CC0080ED97E00197F1F7A8951197C9F708957E
:00000001FF
