:0A0000003EC0FECFFDCFFCCFFBCFCA
:10000A00FACFF9CFF8CFF7CF70C0F5CFF4CFF3CF4F
:10001A00F2CFF1CFF0CFEFCF1027E80364000A0048
:10002A0001000010000110000100EEEDEBE7DEDD3B
:10003A00DBD7BEBDBBB77E7D7B773D20547269613D
:10004A006C2D3130203D004C434420456E61626C7A
:10005A00650001002D4E414E00494E46000080C009
:10006A001000E00034000100F0005C000200F4001F
:10007A0068000000F894EE27ECBBE5BFF8E1F1BD9B
:10008A00E1BD8DE0A2E0BB27ED938A95E9F780E018
:10009A0092E0A0E6ED930197E9F7EAE6F0E0C89569
:1000AA003196802DC8953196902D0097B9F0C89554
:1000BA003196A02DC8953196B02DC8953196102C41
:1000CA00C89531966E2F7F2FF02DE12DC895319668
:1000DA000D920197D9F7E62FF72FE1CFEFE5EDBFA4
:1000EA00E2E0EEBFC0EED0E050C00A921A92FA9255
:1000FA006A937A938A939A93AA93BA93EA93FA930E
:10010A00EFB7EA932497E7EFE883EBEFE983EDEFA4
:10011A00EA83EEEFEB83A4D120E000E0043008F597
:10012A00E02F5ED1AC2FBD2F1396AE0FBF1FEC91FF
:10013A00EBBB10E0103198F4E9B3AE2FE12F50D1A8
:10014A00E052FF4FE081EA1741F4103031F4A0E0A9
:10015A00B0E0E0E0F0E06BD167D01F5FEBCF0F5F5C
:10016A00DDCF203011F4EFEF4E2E7ED12796E991A4
:10017A00EFBFF991E991B991A991999189917991F1
:10018A006991F990199009901895E0EFEBBBEFE0AF
:10019A00EABBE0E0E8BBE7BBE5BBE4BBE1E4E2BB0A
:1001AA00E1E7E1BBE0E0E3BFE2BFEFBDEEBDEDBDDD
:1001BA00ECBDEBBDEABDE9BDE8BDE2BDE5BDE4BD10
:1001CA00E3BDEBBFE5BFE1E0E9BFE0E0EAB9E0E8A3
:1001DA00E8B9E0E0E6B9EDB9A0E1D8D07894E2E078
:1001EA00EA93A0E084D0A4E4B0E0BCD0E2E0EA93D1
:1001FA00A1E07DD0A1E5B0E0B5D0A8EEB3E0FDD096
:10020A0083D0A8EEB3E0F9D0E5E0E3BF0DD0829940
:10021A0009C0A0E0B0E0FBD0319609D1319704D0F3
:10022A00829BFECFF4CFFFCF26976ED0A0E0B0E03E
:10023A00EED0FA93EA93AC2FBD2F129609D0E0E0E4
:10024A00EA93A0E054D0AC2FBD2F7DD02696089516
:10025A00BA93AA93A991B991E991F99130962AF49E
:10026A00E095F09531966DE26D93E89480E197E21E
:10027A000DD088EE93E00AD084E6992707D08AE069
:10028A0005D06E2F10D066276C9308956627E8175D
:10029A00F90720F06395E81BF90BC9F7662311F4F7
:1002AA0016F008956894605D6D930895AA93E8B373
:1002BA00E07FAE2FE881E295EF70EA2BE8BB85E09C
:1002CA008A95F1F7909A8DE08A95F1F790988DE0EA
:1002DA008A95F1F783C0AA93A881E8DFE881E295BD
:1002EA00E883A881E3DF85E88A95F1F777C0AA93C6
:1002FA00E88176D0EC50FF4FE081A981AE0FEBDFA9
:10030A006980788022960895A2E06CD0ACE0E3DFA1
:10031A00A1E068D0E0E07E2E6E2E0895AA93A8810F
:10032A00AA3011F0681448F0E0E0EA937394A72D1C
:10033A00DEDFA881AA3009F451C06394959AA88196
:10034A00CADF95984BC0BA93AA930A93A981BA8136
:10035A00ED91A983BA830E2FE03019F0A02FDEDFCA
:10036A00F5CF11C0BA93AA930A93E981FA8131961B
:10037A00E983FA833197C895E02D0E2FE03019F002
:10038A00A02FCCDFF2CF088123960895AA93E7B372
:10039A00EF60E7BB889A8D9A8C9A90989598949872
:1003AA008880E881E058E093F600E881E054E09321
:1003BA00F700A4E1B0E021D019D018D017D0A0E2FC
:1003CA0075DF88EC90E00197F1F7A8E284DFA4E0FA
:1003DA0082DFA5E880DFA6E07EDF96DF219608951A
:1003EA00F0E0089578DFA3E0B0E007C0A0E35EDFA5
:1003FA0088EC90E00197F1F70895109639F080EDB6
:10040A0097E00197F1F7A8951197C9F70895119602
:10041A0002D0FE2F1197E199FECFFF93FFB7F89410
:10042A00AEBBBFBBE09AEDB3FFBFFF91089507D003
:10043A001196EF93EF2F03D0EF9111970895E19B57
:10044A0002C0A895FCCF9FB7F894AEBBBFBBE09A99
:10045A008DB3E81719F0EDBBE29AE19A9FBF0895B0
:10046A002A931A930A9308952A8119810881089573
:00000001FF
