:0200000032C00C
:10000200FECFFDCFFCCFFBCFFACFF9CFF8CFF7CFA2
:1000120064C0F5CFF4CFF3CFF2CFF1CFF0CFEFCF73
:100022000F0E0D0B07007E0CB69ECCDAFA0EFEDE2A
:10003200EEF872BCF2E2EEEDEBE7DEDDDBD7BEBD41
:10004200BBB77E7D7B77000000000500E000220048
:100052001000E50028001000F5003800040004003C
:1000620048000000F894EE27ECBBE5BFF8E1F1BDD3
:10007200E1BD8DE0A2E0BB27ED938A95E9F780E030
:1000820092E0A0E6ED930197E9F7ECE4F0E0C89581
:100092003196802DC8953196902D0097B9F0C8956C
:1000A2003196A02DC8953196B02DC8953196102C59
:1000B200C89531966E2F7F2FF02DE12DC895319680
:1000C2000D920197D9F7E62FF72FE1CFEFE5EDBFBC
:1000D200E2E0EEBFC0EED0E0B6C00A921A92FA9207
:1000E2006A937A938A939A93AA93BA93EA93FA9326
:1000F200EFB7EA932497E7EFE883EBEFE983EDEFBD
:10010200EA83EEEFEB832CD120E000E0043040F5EF
:10011200D6D0AC2FBD2F1396AE0FBF1FEC91EBBB09
:1001220010E01031D8F4E9B3AE2FCCD0EB50FF4F32
:10013200E081EA1789F4C9D0EA17FB0711F0CCD0A5
:1001420013C0C3D0EA17FB0719F4EFEFE81509F063
:1001520002C0C2D009C021E01F5FE3CF0F5FD6CF3C
:10016200203011F4EFEF8E2EFFD02796E991EFBFEA
:10017200F991E991B991A9919991899179916991AD
:10018200F990199009901895BA93AA932497A9D037
:10019200509728F4EC81E883E0E0A6D02EC0A8D0E6
:1001A20018F49FD0509708F404C0A7D0A9D09CD0CF
:1001B20024C0B4D010F49CD008F409C09ED0A0D0C2
:1001C200E983EC81FD81AFD0EA83E0E016C089D0FB
:1001D200EFEFFFEFEA17FB0710F0A0D008F40EC014
:1001E2008CD08ED0E983EC81FD81B1D0EC83FD838C
:1001F20084D0EA83EC81FD8196D0EB83AC2FBD2FB6
:1002020002D026960895BA93AA930A9301E0053084
:10021200B8F455D0E052FF4FE081E5BB50D03197A2
:10022200A981BA81AE0FBF1FEC91F0E0EB51FF4FF5
:10023200E081E8BB80E496E00197F1F70F5FE7CF3A
:10024200088123960895E0EFEBBBEFE0EABBE0E024
:10025200E8BBEFEFE7BBE0E0E5BBEFE0E4BBE0E0EB
:10026200E2BBE1BBE3BFE2BFEFBDEEBDEDBDECBD66
:10027200EBBDEABDE9BDE8BDE2BDE5BDE4BDE3BD60
:10028200EBBFE5BFE1E0E9BFE0E0EAB9E0E8E8B9E9
:10029200E0E0E6B9EDB97894E5E0E3BFA42DB52D31
:1002A20073DFFCCFFFCFAA93E42DF52D47D04E2E5E
:1002B2005F2EE881F0E04E0E5F1E21960895E02F3A
:1002C200F0E00895E12FF0E00895E42DF52DEF70B0
:1002D200F070AE2FBF2FF6CFA12FE5DF812E21E0E8
:1002E2000895AC81BD810895E983E0E0EA83089531
:1002F200F8DFA030E1E0BE070895EC81EF700895C9
:10030200E883EC81FD81EF70F070EBDFAE1BBF0B79
:10031200EA2FFB2F1CD0EC83FD83EFCFE2DFA0306E
:10032200E0E1BE070895EF70F070DBDFAE1BBF0B9C
:10033200EA2FFB2F0CD0EC83FD83DFCFEE0FFF1FE4
:10034200EE0FFF1FEE0FFF1FEE0FFF1F0895F69532
:10035200E795F695E795F695E795F695E79508956D
:100362002A931A930A9308952A811981088108957C
:00000001FF
