:0600000019C0FECFFDCF88
:10000600FCCFFBCFFACFF9CFF8CFF7CFF6CFF5CFAE
:10001600F4CFF3CFF2CFF1CFF0CFEFCF1027E80335
:1000260064000A0001000010000110000100F894AD
:10003600EE27ECBBE5BFF8E1F1BDE1BD8DE0A2E046
:10004600BB27ED938A95E9F780E092E0A0E6ED9371
:100056000197E9F7EFE5EDBFE2E0EEBFC0EED0E0D5
:1000660000C0E0E0EBBBEFEFEABBE0E0E8BBE7BBDC
:10007600E5BBE4BBE2BBE1BBE3BFE2BFEFBDEEBD68
:10008600EDBDECBDEBBDEABDE9BDE8BDE2BDE5BD3C
:10009600E4BDE3BDEBBFE5BFE9BFE8E1EAB9E3E3F1
:1000A600E9B9E0E8E8B9E0E0E6B9EDB910D0E13445
:1000B60019F4D89AA3E402D0F9CFFFCFAA935D9B97
:1000C600FECFE881ECB95E9BFECF219608950A9398
:1000D6005F9BFECF0CB1E0E0ECB9E02F09910895EB
:00000001FF
