:0A00000019C0FECFFDCFFCCFFBCFEF
:10000A00FACFF9CFF8CFF7CFF6CFF5CFF4CFF3CFBA
:10001A00F2CFF1CFF0CFEFCF1027E80364000A0048
:10002A0001000010000110000100F894EE27ECBB5B
:10003A00E5BFF8E1F1BDE1BD8DE0A2E0BB27ED939C
:10004A008A95E9F780E092E0A0E6ED930197E9F757
:10005A00EFE5EDBFE2E0EEBFC0EED0E000C000E0A9
:10006A0010E0E0E0EBBBEABBE8BBE3E0E7BBE0E0C3
:10007A00E5BBE4BBE0E4E2BBE1BBE0E0E3BFE2BF37
:10008A00EFBDEEBDEDBDECBDEBBDEABDE9BDE8BD22
:10009A00E2BDE5BDE4BDE3BDEBBFE5BFE9BFE8E115
:1000AA00EAB9E3E3E9B9E0E8E8B9E0E0E6B9EDB9CD
:1000BA00A0E08299A1E0A03011F4003009F007C055
:1000CA00A1E416D01ED0E334E9F7C09A01E0A0E01B
:1000DA008399A1E0A03011F4103009F007C0A2E41E
:1000EA0007D00FD0E434E9F7C19A11E0E1CFFFCF8E
:1000FA00AA935D9BFECFE881ECB95E9BFECF219669
:10010A0008950A935F9BFECF0CB1E02F09910895E1
:00000001FF
