:100000004AC084C0FDCFFCCFFBCFFACFF9CFF8CFE9
:10001000F7CF7DC0F5CFF4CFF3CFF2CFF1CFF0CF54
:10002000EFCF0000020007000A00000102010501F5
:1000300008010B01DF07000000000C1F173B370011
:1000400054686973206973206120636C6F636B214E
:100050000056657269736F6E20302E310041443155
:100060003939392F31322F33310030303A3030279F
:10007000303022303030300020202000202020205E
:1000800020004144000080C00B0004003400020046
:10009000E60086000000F894EE27ECBBE5BFF8E12F
:1000A000F1BDE1BD8DE0A2E0BB27ED938A95E9F7B4
:1000B00080E092E0A0E6ED930197E9F7E8E8F0E050
:1000C000C8953196802DC8953196902D0097B9F03E
:1000D000C8953196A02DC8953196B02DC89531960A
:1000E000102CC89531966E2F7F2FF02DE12DC895DD
:1000F00031960D920197D9F7E62FF72FE1CFEFE573
:10010000EDBFE2E0EEBFC0EED0E026C018950A9247
:100110001A929A93AA93BA93EA93FA93EFB7EA934F
:10012000E1E0F0E08E0E9F1E5DD2CED26E2E7F2ECD
:1001300059D2D3D2309721F4E1E0EBBBE0E0EBBB46
:10014000E4E4E2BFE991EFBFF991E991B991A99196
:100150009991199009901895E0E0EBBBE1E0EABBBA
:10016000E0E0E8BBEFEFE7BBE0E0E5BBE4BBE0E4E9
:10017000E2BBE1BBE0E0E3BFE2BFEFBDEEBDEDBD42
:10018000ECBDEBBDEABDE9BDE8BDE2BDE5BDE4BD4A
:10019000E3BDE0E4EBBFE3E0E5BFE0E4EABFE1E0BC
:1001A000E9BFE0E0EAB9E0E8E8B9E0E0E6B9EDB9D6
:1001B000A0E1EED178941BD2A0E4B0E01CD2A1E57E
:1001C000B0E0D2D1A8EBBBE05CD290D1A8EEB3E016
:1001D00058D20DD2ADE5B0E00ED2AAE6B0E0C4D15F
:1001E00026D0E2E0E3BFA8E00BD2E8D0FCCFFFCFFF
:1001F0000A93E0E007D2A8E7B0E0FDD1AC2D05D22C
:10020000E5E000D2AAE382D1E6E0FCD1AD2DFDD13C
:10021000E8E0F8D1A7E27AD1E9E0F4D1AE2DF5D14A
:10022000EBE0F0D1ACE7B0E09FD109910895DFD1C8
:10023000A2E8B0E099D1E2E0EDD1A42DB52D19D01E
:10024000A0EEB0E083D1E6E0E5D1AFE25FD1E7E038
:10025000E1D1AA2DDAD1E9E0DDD1AFE257D1EAE070
:10026000D9D1AB2DD2D1ECE0D5D1ADE7B0E07CD186
:100270000895D3D128F4E981D7D1E0E0D8D133C0B3
:10028000DCD1DED118F4D9D11A9708F406C0DCD13C
:10029000CBD1DAD1DED1CBD126C0E4D118F4CDD187
:1002A000CFD108F40CC0D0D1BFD1CED1D2D1E09300
:1002B000E200CAD1CED1E093E100E0E014C0BDD1AC
:1002C000A031E7E2BE0710F4CDD108F40EC0BCD1D6
:1002D000ABD1BAD1BED1E093E200B6D1BAD1E093AE
:1002E000E100B2D1B6D1E093E00000E0043060F468
:1002F000BED1E052FF4FFF93EF93A0812BD0AF917F
:10030000BF91EC930F5FF2CF40C187D128F4E98110
:10031000E093E500E0E00CC090D192D118F48DD1CB
:100320001A9708F407C090D1E093E5008DD191D1E0
:10033000E093E40000E0023060F499D1EC51FF4F0B
:10034000FF93EF93A08106D0AF91BF91EC930F5F25
:10035000F2CF1BC1AA93E881E03011F4E0E340C181
:10036000A881A13011F4E1E33BC1A881A23011F4CE
:10037000E2E336C1A881A33011F4E3E331C1A881DF
:10038000A43011F4E4E32CC1A881A53011F4E5E315
:1003900027C1A881A63011F4E6E322C1A881A730C5
:1003A00011F4E7E31DC1A881A83011F4E8E318C1F6
:1003B000A881A93011F4E9E313C112C1ABD100E067
:1003C00010E0E4E6F0E0E615F70534F4E394662483
:1003D00077248824992411E0ECE3EE1521F4D394DA
:1003E000EE2488249924ECE3ED1511F4C394DD2464
:1003F000E8E1EC1519F4B394CC2401E0E1E0EA154E
:1004000091F0E3E0EA1579F0E5E0EA1561F0E7E064
:10041000EA1549F0E8E0EA1531F0EAE0EA1519F0EA
:10042000ECE0EA1539F4E0E2EB1519F4A394E1E00D
:10043000BE2E1BC0E2E0EA1539F4A42DB52DE4E090
:10044000F0E04BD1309709F40AC0EDE1EB1519F05B
:10045000EEE1EB1519F4A394E1E0BE2E06C0EFE146
:10046000EB1519F4A394E1E0BE2EEDE0EA1529F4B2
:10047000E1E0F0E04E0E5F1EAE2E113009F4B8DE62
:10048000013009F4D4DE49D10895AA93E8B3EF709E
:10049000AE2FE881E07FEA2BE8BB85E08A95F1F793
:1004A000909A8DE08A95F1F790988DE08A95F1F712
:1004B00097C0AA93A881E9DFE881E295E883A88143
:1004C000E4DF85E88A95F1F78BC0AA93E881F0E034
:1004D000EA51FF4FE081A981AE0FEBDFE981E093A4
:1004E000EA00E881E093EB0022960895A2E0E1DFC4
:1004F000A3E086D0ACE0DDDFA1E0DBDFA3E080D0CD
:10050000E0E0E093EB00E093EA000895AA93A8816D
:10051000AA3031F0E091EC00A091EA00AE1760F053
:10052000E0E0EA93A091EB00AF5FA093EB00CDDF9A
:10053000A881AA3009F454C0E091EA00EF5FE0938B
:10054000EA00959AA881B5DF95984AC0BA93AA9314
:100550000A9373D0ED91A983BA830E2FE03019F07E
:10056000A02FD4DFF6CF11C0BA93AA930A93E981E2
:10057000FA813196E983FA833197C895E02D0E2FE1
:10058000E03019F0A02FC2DFF2CF08812396089542
:10059000AA93E7B3E06FE7BB889A8D9A8C9A9098FC
:1005A00095989498E881E093EC00E058E093E80097
:1005B000E881E054E093E900A4E122D05BD05AD076
:1005C00059D0A0E262DF88EC90E00197F1F7A8E251
:1005D00070DFA4E06EDFA5E86CDFA6E06ADF86DFEF
:1005E00021960895A82DB92DE6E2F0E00895E0E007
:1005F000EA93A0E06ACFB8DFE3E0EA93A1E065CF39
:10060000B0E03FC0EA93A1E060CFBB277EDEA4EE5E
:10061000B0E09CCFEA93A0E058CFBA93AA930A9394
:10062000A981BA811A970895E093E3000895E093B1
:10063000E200E0E0E093E1000895A981BA81089525
:10064000A436E0E0BE070895F8DFEAE0F0E041D02C
:100650000895F3DFAE1BBF0BEAE0F0E020D0E983A2
:10066000FA83F2CFEADFA83EE3E0BE070895E02F69
:10067000F0E00895A0E309DF88EC90E00197F1F73E
:100680000895109639F080ED97E00197F1F7A8955D
:100690001197C9F70895F195E195F0400895002468
:1006A000112490E1AA0FBB1F001C111C0E1A1F0A77
:1006B00018F40E0E1F1E01C0A1609A9599F7EA2F3B
:1006C000FB2FA02DB12D089517D0E9DF0EF4E3DF45
:1006D0000895E5DFEA2FFB2F0895E894B7FF04C0E3
:1006E000A095B09511966894F7FDD5DFD8DFEA2F75
:1006F000FB2F0EF4D0DF0895E894F7FF02C0CBDFA4
:100700006894B7FF06C0A095B095119600F80394C1
:1007100000FA08951A930A9308950991199108957A
:00000001FF
